:10000000E5EF0CF068961200046ED8CF05F0E0CF53
:1000100006F00001E9CF0CF0EACF07F0E1CF08F0DD
:10002000E2CF09F0D9CF0AF0DACF0BF0F3CF12F01C
:10003000F4CF13F0FACF14F0F5CF15F0F6CF16F099
:10004000F7CF17F000C00EF001C00FF002C010F0A3
:1000500003C011F0A0AA30EF00F0A1BA69EF09F0D7
:100060000EC000F00FC001F010C002F011C003F08C
:100070000CC0E9FF07C0EAFF078E08C0E1FF09C016
:10008000E2FF0AC0D9FF0BC0DAFF12C0F3FF13C0B2
:10009000F4FF14C0FAFF15C0F5FF16C0F6FF17C035
:1000A000F7FF045006C0E0FF05C0D8FF1000F76A54
:1000B000BE0FF66E000EF7220900F5501200000385
:1000C00002FFFFFFFFFFFFFFFFFFFFFFFFFFF76ADA
:1000D000DE0FF66E000EF7220900F550120000FF49
:1000E00002FFFFFFFFFFFFFFFFFFFFFFFFFFF76ABA
:1000F000FE0FF66E000EF7220900F55012004000C8
:100100000B004000000000000000000000000000A4
:100110000000000000000000000000000000F76A7E
:100120002E0FF66E010EF7220900F5501200400066
:10013000000040000000000000000000000000007F
:100140000000000000000000000000000000F76A4E
:100150005E0FF66E010EF7220900F550120009023B
:100160004300020100803209040000010202010084
:1001700005240010010424020205240600010524C0
:10018000010001070581030B00FA09040100020ABE
:10019000000000070502024000010705820240003E
:1001A0000100F76AB20FF66E010EF7220900F55052
:1001B00012000200F76AC40FF66E010EF722090062
:1001C000F550120012171B20FFFFFFFFF76ADC0F2C
:1001D000F66E010EF7220900F5501200120110010F
:1001E0000200004005240B00000101020001F76A33
:1001F000FE0FF66E010EF7220900F55012000403FF
:100200000904080343004300530020034300430054
:1002100053002000550053004200200074006F007E
:10022000200055004100520054006D92699468A46A
:1002300002D06894FCD7689875EF09F0400E04016D
:10024000016F040E0101026F180E02C103F4E8CF22
:1002500002F4880E0401006F046B040E076F580E41
:10026000066F0001120070A002D0E8DF7090689A5B
:100270007DEF09F06A6A689282EF09F001010E9140
:100280000DBF0E810D9F0D51100803E2000E016E8F
:100290001AD00EA10DD0036A0D51000108DFFF082E
:1002A00002E1000E01D0010E016E01010CD00BD055
:1002B000036A0D5100010BDFFF0802E1000E01D0BF
:1002C000010E016E0101000112000101135115031D
:1002D000F3CF01F0F4CF00F01603F35000261451D1
:1002E0001503F3500020026E00011200036A0101A1
:1002F0000C51700FE96E0F0E0320EA6EEF6A0CC10D
:100300000DF10001BBDF015228E00101146B0CC1AB
:1003100013F1166B080E156F0001D7DF010101C044
:10032000E9FF040E0224EA6EEF6A146B0CC113F1AC
:10033000166B080E156F0001C8DF02C00EF101C078
:100340000DF1040E01010D27000E0E230DC1E9FF72
:10035000040E0E25EA6EEF6A00011200010E010183
:100360000B6F0B510F0807E30BC10CF10001BEDF4F
:1003700001010B2BF6D7000112000101056B046B84
:10038000250E036F800E026F02C12BF003C12CF00B
:100390002D6A2E6A026B02C12FF0026B02C130F08F
:1003A000080E026F02C131F00001B66BB591336ADD
:1003B000326AB46B1E90B76B1200286A276A01017B
:1003C000016B015101080AE3036A0151290FE96E2B
:1003D000000E0320EA6EEF6A012BF3D70001CDDF98
:1003E0001B6A010E1C6E1A6A12006B6A696A6A6ADD
:1003F000686A6E6A706AB2DFE0DF160E706E68A619
:1004000002D000DEFCD79F0E6B6E3D0E696E6D98BC
:1004100015DF030E226E87EF09F0698469986D82FB
:100420008CEF09F0689C91EF09F006C123F01200EF
:10043000236812000101046B2750281033E0045197
:100440003F0830E31D50000A000105E0020A0AE0FF
:10045000010A0FE014D026C003F0255078DEE8CF63
:1004600005F10DD026C003F02550C1DEE8CF05F11F
:1004700006D026C003F02550A9DEE8CF05F1252AD5
:10048000D8B4262A2750D8B42806270601010451DB
:10049000042B580FE96E040EEA6ED8B0EA2A05C1A3
:1004A000EFFFCAD72750281004E10451400801E0AB
:1004B0001A6A04C106F10001B8DF12000101036BE2
:1004C000266A256A1D6A04011B51010A000107E022
:1004D000030A0BE0010A0DE0220A29E041D0286A54
:1004E000120E276E030E1D6E3DD0286A430E276E36
:1004F00039D0020E1D6E0101036B04011A51010176
:10050000035D0BE226C003F02550000170DE2526B6
:10051000000E26220101032BF0D726C003F0255040
:10052000000165DE036A276E03C028F01BD0036A52
:1005300004011A5100013EDE036A256E03C026F055
:10054000253C02D026520AE026C003F02550FFDDEC
:10055000036A276E03C028F005D002D069DF11D0EE
:1005600067DF0FD004011F5308E1285203E1275031
:100570001E5D03E2286A1EC427F0010E1A6E0001F8
:1005800059DF14EF04F00101035306E1040E226E5B
:100590000001E4DEEAD00101050E226E040E066FB2
:1005A000980E056F010E046F04510F08D8A0DDD01E
:1005B00004C10CF100019ADE0101076B036A0451CA
:1005C000000185DDFF0867E0040E0101076FD89088
:1005D0000435036A0001A3DD0900F5CF03F0010132
:1005E000086F03C009F1146B04C113F1166B080EF8
:1005F000156F00016ADE01C00BF1010E010101243B
:10060000016E000E0220036E01C0E9FF040E0324F8
:10061000EA6E08C1EFFF146B04C113F1166B080EEC
:10062000156F000152DE01C00BF1020E0101012421
:10063000016E000E0220036E01C0E9FF040E0324C8
:10064000EA6E06C1ECFFED5205C1EFFFD89004350C
:10065000036A000164DD0900F5CF03F001010527FD
:1006600003500623880E0A6F09A101D00A8109A34D
:1006700001D00A83146B04C113F1166B080E156FB9
:10068000000123DE010101C0E9FF040E0224EA6E2D
:100690000AC1EFFF0001036A01010451000107DDF7
:1006A000FF0848E001010783146B04C113F1166BC6
:1006B000080E156F000109DE02C00CF101C00BF13C
:1006C000040E01010B27000E0C23020E0B25016EF8
:1006D000000E0C21036E01C0E9FF040E0324EA6E34
:1006E00006C1ECFFED5205C1EFFFD8900435036A57
:1006F0000001FDDC0900F5CF03F0010105270350DF
:100700000623146B04C113F1166B080E156F00015C
:10071000DCDD02C00CF101C00BF1040E01010B275E
:10072000000E0C230BC1E9FF040E0C25EA6E400EEF
:10073000EF6E000101010751060802E10E0E076F7E
:10074000036A04510001B3DC010803E001010789D9
:100750000001036A01010451700FE96E0F0E0320BE
:10076000EA6E07C1EFFF042B1FD700010CEF04F066
:1007700004011951000A00010DE0010A15E0020A06
:1007800021E0060A2CE0030A33E00E0A33E0010AF6
:1007900039E049D01CC058F40401596B020E010124
:1007A000066F000142DE40D004011A2D08D0010E70
:1007B0001C160101066B000138DE03D004010001A4
:1007C00037DE32D004011A2D07D01C820101066BDE
:1007D00000012BDE03D0040100012ADE25D0020E29
:1007E0001A6E1AC424F00101066B00011EDE1CD033
:1007F00065D61AD01BC058F4010E0101066F000126
:1008000014DE12D004011A5101080BE31AC41BF0C4
:100810001AC403F10001B7D60101066B000105DE21
:100820000401000101D004DEAEEF05F01BC003F1AE
:1008300004011951000A000105E00A0A0CE0010A4E
:100840002CE041D00401586B596B020E0101066F78
:100850000001EBDD39D0010103531CE0010E035D03
:10086000036A00019EDC016E04011C5DD8A002D069
:10087000010110D0036A1C51290FE96E000E0320FC
:10088000EA6EEFCF58F4010E0101066F0001CDDDD5
:1008900003D001010001CCDD17D00101035310E0AA
:1008A000036A04011C51290FE96E000E0320EA6E51
:1008B0001AC4EFFF0101066B0001B7DD03D001018F
:1008C0000001B6DD01D0B4DDAEEF05F00101049109
:1008D00003BF0481039F04A119D0146B03C113F15A
:1008E000166B080E156F0001F0DC02C006F101C0A6
:1008F00005F1040E01010527000E062305C1E9FFDD
:10090000040E0625EA6E880EEF6E0FD0146B03C13D
:1009100013F1166B080E156F0001D7DC010101C041
:10092000E9FF040E0224EA6EEF6A036A0351700FB6
:10093000016E0F0E032201C0E9FF03C0EAFFEF9032
:10094000000123EF05F00101049103BF0481039F1F
:1009500004A119D0146B03C113F1166B080E156FA7
:100960000001B3DC02C006F101C005F1040E010173
:100970000527000E062305C1E9FF040E0625EA6ED1
:10098000840EEF6E10D0146B03C113F1166B080EBA
:10099000156F00019ADC010101C0E9FF040E022479
:1009A000EA6E840EEF6E00012BEF05F00101049159
:1009B00003BF0481039F04A119D0146B03C113F179
:1009C000166B080E156F000180DC02C007F101C034
:1009D00006F1040E01010627000E072306C1E9FFF8
:1009E000040E0725EA6EEFCF05F110D0146B03C19A
:1009F00013F1166B080E156F000167DC010101C0D1
:100A0000E9FF040E0224EA6EEFCF05F105AF02D034
:100A100005B502D0000E01D0010E016E000137EFC6
:100A200005F01CC40DF12ADC01522EE0040119511D
:100A3000010A000105E0020A0BE0030A11E023D0DD
:100A40001CC403F143D70101066B0001EEDC1CD08E
:100A50001CC403F178D70101066B0001E6DC14D059
:100A60000401586B596B1CC403F100019FD701525C
:100A700004E0010E0401586F0001020E0101066F2F
:100A80000001D3DC01D0D4DCAEEF05F0FE0E236E06
:100A9000120004011C2D01D002D01C5345E11FC4DB
:100AA00004F11EC403F11951000A00010BE0010A10
:100AB0000DE0210A0FE0010A12E0030A23E0010A17
:100AC00028E030D0010EB76FE1DF2DD003C106F171
:100AD000ACDC29D0020EB76FB581D8DF24D0040E6C
:100AE000EA6E580EE96EE26A2B0EE16E070E016E99
:100AF000E6CFEEFF012EFCD7070E0101066F0001C5
:100B000094DC11D01AC4B6F00101066B00018DDC33
:100B10000AD01AC433F01BC432F00101066B000185
:100B200084DC01D085DC04010001AEEF05F01A6A17
:100B3000040118517F0B000A000107E0010A07E0D9
:100B4000030A07E0230A07E008D012D607D06ED6C2
:100B500005D067D703D09DD701D06ADCB2EF08F08B
:100B60000101146B09C113F1166B080E156F00011A
:100B700065EC01F0010101C0E9FF040E0224EA6EF8
:100B8000EFCF0BF10A51020806E10BAD02D00A6B60
:100B900002D0010E0A6F0A5103081CE1840E0B6F8C
:100BA000146B09C113F1166B080E156F000165EC8B
:100BB00001F002C00FF101C00EF1040E01010E2779
:100BC000000E0F230EC1E9FF040E0F25EA6E840EFE
:100BD000EF6E07D00A2D03D0C80E0B6F02D0880E1F
:100BE0000B6FD8900935036A00018FEC00F0090003
:100BF000F5CF03F001010C6F03C00DF1146B09C1B7
:100C000013F1166B080E156F000165EC01F001C0C1
:100C10000EF1010E01010124016E000E0220036E8F
:100C200001C0E9FF040E0324EA6E0CC1EFFF0DA121
:100C300001D00B810DA301D00B83146B09C113F1FB
:100C4000166B080E156F000165EC01F0010101C083
:100C5000E9FF040E0224EA6E0BC1EFFF000112004F
:100C6000036A01011251700FE96E0F0E0320EA6E44
:100C7000EF521BE0146B12C113F1166B080E156FC7
:100C8000000165EC01F002C014F101C013F1040E83
:100C900001011327000E142313C1E9FF040E1425CC
:100CA000EA6EEFCF15F115AF02D0000E01D0010EA4
:100CB000016E000112000DC112F1D2DF0152D8B451
:100CC0009BD00101146B0DC113F1166B080E156F4B
:100CD000000165EC01F002C013F101C012F1040E35
:100CE00001011227000E1323010E1225016E000EC2
:100CF0001321036E01C0E9FF040E0324EA6E0EC146
:100D0000EFFF1051020820E1146B0DC113F1166BB7
:100D1000080E156F000165EC01F002C013F101C06F
:100D200012F1040E01011227000E132312C1E9FF74
:100D3000040E1325EA6EEFCF11F111AD02D0106B46
:100D400002D0010E106F1AD01051040817E1146B75
:100D50000DC113F1166B080E156F000165EC01F063
:100D6000010101C0E9FF040E0224EA6EEFCF11F188
:100D700011AD03D0010E106F01D0106B102D03D0F8
:100D8000480E116F02D0080E116F146B0DC113F1D4
:100D9000166B080E156F000165EC01F002C013F12F
:100DA00001C012F1040E01011227000E132312C11B
:100DB000E9FF040E1325EA6E11C1EFFF146B0DC19C
:100DC00013F1166B080E156F000165EC01F002C0FF
:100DD00013F101C012F1040E01011227000E1323BA
:100DE00012C1E9FF040E1325EA6EEF508009EF6E81
:100DF000010E016E04D00001000E016E0101000120
:100E00001200B751010A03E0030A08E01BD00101F8
:100E1000066B000115EC02F0B76B15D0EA6A2B0ED9
:100E2000E96E040EE26E180EE16E070E016EE6CF5B
:100E3000EEFF012EFCD7B76B0101066B000115EC2C
:100E400002F001D0B76B62EF07F00101146B04C12F
:100E500013F1166B080E156F000165EC01F002C06E
:100E600006F101C005F1010E01010124016E000E21
:100E70000220036E01C0E9FF040E0324EA6E036A38
:100E8000EFCF01F003C002F0000156EF07F01E9013
:100E9000020E0101096F0A6F000162DE12001E805E
:100EA000206A020E0101046F0001CFD701C01FF0BC
:100EB0001F5201E1ECDF69EF07F00101035304E188
:100EC00000019FD706D001010351020803E1000190
:100ED000E6D701010001120004C16EFF01010453B5
:100EE00003E0040E226E02D0020E226E00017EEF9D
:100EF00007F01B6A1A6A24C004F1EED78CEF08F0E1
:100F000005C112F1ADDE015247E00101146B05C1CC
:100F100013F1166B080E156F000165EC01F002C0AD
:100F20000EF101C00DF1040E01010D27000E0E237C
:100F3000020E0D25016E000E0E21036E01C0E9FFA9
:100F4000040E0324EA6EECCF0CF1ED52EFCF0BF15F
:100F50000CC1EAFF0BC1E9FF07C1E2FF06C1E1FFD7
:100F600009C102F008C101F0015202E0022A02D0D8
:100F7000025206E0E6CFEEFF012EFCD7022EFAD792
:100F800005C10DF109C10FF108C10EF10AC110F13F
:100F9000000191DE015002D0000E016E120009C165
:100FA0000FF108C10EF10BC111F10AC110F10101DD
:100FB00011510F5D3EE303E10E51105D3AE20C5119
:100FC0001025016E0D511121036E0F51035C31E3A9
:100FD00003E101500E5D2DE20C510E270D510F2340
:100FE0000C5110270D5111230D5303E10C51000832
:100FF0001FE20E51D8B40F070E070FC113F10EC137
:1010000012F11051D8B41107100711C103F010C12B
:10101000E9FF03C0EAFFEFCF14F113C1EAFF0EC1ED
:10102000E9FF14C1EFFF0C51D8B40D070C07DCD752
:1010300022D00D5303E10C5100081DE20FC113F142
:101040000E510E2BD8B40F2B126F11C103F010519B
:10105000102BD8B4112BE96E03C0EAFFEFCF14F1C7
:1010600013C1EAFF12C1E9FF14C1EFFF0C51D8B45C
:101070000D070C07DED708C101F009C102F000011D
:101080001200B45336E0B4C004F1010104513F082A
:1010900002E23F0E046F020E056F076B340E066FFF
:1010A000096B04C108F1020E0A6F000129DF015229
:1010B00020E0036A01010451340F016E000E032287
:1010C00001C005F103C006F104510001B45D010146
:1010D000076F096B340E086F03C00BF101C00AF1F2
:1010E0000D6B07C10CF100015ADF01010451000131
:1010F000B45F1200C6DF93EF08F0010103530EE165
:101100001A2C05D000011AEC02F006D001011A5089
:10111000020803E10001EDD6010106D003510208E7
:1011200003E10001E7D701010001120021300101B4
:10113000016F013301331F0E011721524EE10401EB
:1011400000513C0B0101026F430E04010017010125
:101150000251340825E104010451800B01E0046BC5
:101160000001E5D46D98233C07D00101096B030E03
:101170000A6F0001F5DC12D00101096B020E0A6F43
:101180000001EEDC2350FE0809E001010D6B0F6B3E
:1011900023C00EF1040E106F00018DDD1CD0010183
:1011A0000251040819E1036B000187DE0101096B9C
:1011B000020E0A6F0001D4DC2350FE080CE0233C31
:1011C00001D009D001010D6B0F6B23C00EF1010E90
:1011D000106F000170DD010122D02150040812E1DE
:1011E0002368036B000189DF233C01D009D0010192
:1011F0000D6B0F6B23C00EF1020E106F00015BDD53
:101200000DD0010121B406D001C103F1000155DE6A
:1012100005D0010101C103F100016FDF01010001EF
:101220009DEF09F01EB001D0FDD72050202AA30F5A
:10123000E96E040EEA6ED8B0EA2AEFCF08F11F502B
:10124000205C01E324DE010108C101F000013CEF54
:1012500009F01EA03CD00101056B0551030815E300
:10126000036A0551010F016E010E032201C006F150
:1012700003C007F10001D6D707C1EAFF06C1E9FFA5
:1012800001C0EFFF0101052BE8D70151310803E14F
:1012900093988A8802D093988A980251310803E182
:1012A000939A8A8A02D0939A8A9A0351310803E169
:1012B000939C8A8C02D0939C8A9C0451310803E150
:1012C000939E8A8E02D0939E8A9E0001C2D7AAEF77
:1012D00009F0A19A2252D8B43DD06852D8B43AD07D
:1012E00068A403D069B415EF01F06DA201D032D02B
:1012F00068AA03D069BA33EF01F068A203D069B2DB
:101300003AEF01F068A003D069B0F5EF01F068A8EA
:1013100003D069B80DEF02F068AC03D069BC12EFDE
:1013200002F00101006B68A60AD069A608D06CCF54
:1013300021F0000102EC00F0F9D603D0010106D043
:10134000000101010051002B0308EDE21EA003D0B3
:1013500000017FD70101000130EF00F06D926D6A4E
:10136000696A080E6F6E94503009946E226A196A89
:10137000F2BE198EF29EDDEC01F019BEF28EC2EFC4
:1013800009F0ECD7FAEF09F01B50016E1200196A50
:10139000F2BE198EF29EDDEC01F019BEF28E6D9256
:1013A0006D6A6D8C00D000D000006D9C140E6F6EC5
:1013B000696A6D86010E226EEBEF09F0E5DF0152DE
:1013C00007E0196AF2BE198EF29E5BDE19BEF28E3C
:1013D0006DB601D0DCD7222C0BD06DBA09D0686A6B
:1013E000696AA08AC00EF212110E696E020E226E98
:1013F0001200C7D7E3DF22500208FCE111EF0DF025
:101400008E0E006EE7C001F0E6C002F0036A0152E2
:1014100009E102C001F0026A080E005E015202E119
:10142000006A08D0D89001BE04D00236013600060A
:10143000F9D7019E21EF0DF0E651D8B4A5D0F26F97
:10144000EA51D8B4A1D0F25F05E37F0EF227D8B0FD
:101450009BD006D0810EF25FD8A096D0D8B494D09D
:10146000F2C000F0016A026A036AF16BE7C0F0F0B3
:10147000F08FE8C0EFF0E9C0EEF0190EF26FED5119
:10148000EE5F0DE2010EEF5F0AE2F05F08E2F15F4E
:1014900006E2F12BF02BEF2BED51EE2728D0EC518B
:1014A000EF5F12E2010EF05F0FE2F15F0DE2F12B50
:1014B000F02BEC51EF27ED51EE2719E3EF2B17E15D
:1014C000F02B15E1F12B13D0EB518009F05F0EE208
:1014D000010EF15F0BE2F12BEB518009F027EC518B
:1014E000EF27E9E3F02BE7E1F12BE5D70380F22FBB
:1014F00001D00BD0D890EE37EF37F037F137D890D6
:10150000033602360136F337BAD7F3A106D0D890A6
:10151000013202320332F33302D0000635E0F3BF6A
:101520001ED0D890EE37EF37F037F137ED51EE5F40
:1015300007E2010EEF5F04E2F05F02E2F15F1AE3FF
:10154000EC51EF5F05E2010EF05F02E2F15F12E3A2
:10155000EB518009F05F03E2010EF15F0BE3032A18
:1015600009E1022A07E1012A05E1002A0DE0013222
:1015700002320332E7C0F2F0EB51F21BF2AF02D0BD
:10158000018E06D0019E04D0006A016A026A036AD5
:1015900031EF0DF0F351D8B471D0006EF751D8B4DB
:1015A0006DD0002604E3810E002668E204D07F0E91
:1015B000005E64E363E0F4C0FBF0F851FB1BF48FC2
:1015C000F88FF651FA03F4CFFDF0F551F903F4CF9B
:1015D00003F0F3CFFCF0FA03F350FD27F450FC23A3
:1015E000000E0322F651F903F350FD27F450FC23BB
:1015F000000E026A03220222F451FA03F350FC2780
:10160000F4500322000E0222F451F903F350032692
:10161000F4500222000E016A0122F651F803F35041
:10162000FC27F4500322000E02220122F551F80398
:10163000F3500326F4500222000E0122F451F80365
:10164000F3500226F4500122002A01BE05D0FC37D7
:101650000336023601360006000EFCAF0AD0032A1C
:1016600002220122015005E1025003E1035001E191
:10167000002AFBBF018EFBAF019E04D0006A016A05
:10168000026A036A1200BFC0EAFFBEC0E9FFF3C0EE
:10169000EFFFE92AD8B4EA2AEF6ABE2BD8B4BF2BF1
:1016A0001200F351B608F36F036AF4C0F7F0F48F39
:1016B000D890F433F533F63303320232013200327C
:1016C000F32FF6D7F7AF0BD0001E011E021E031E2C
:1016D000002AD8B4012AD8B4022AD8B4032ADFEFEA
:1016E0000BF0D8B203D0EA6AFB0EE96E006A016A19
:1016F000026A036AFB6BFC6BFD6BFE6BFA51F9111E
:10170000F811F7112CE0200EFF6FD890F337F43763
:10171000F537F637FB37FC37FD37FE37FA51FE5DFC
:1017200008E1F951FD5D05E1F851FC5D02E1F75179
:10173000FB5D0FE3F751FB5FF851D8A0F83DFC5F6C
:10174000F951D8A0F93DFD5FFA51D8A0FA3DFE5FEE
:10175000D8800036013602360336FF2FD6D7FBC0BD
:10176000EFFFFCC0ECFFFDC0ECFFFEC0ECFF120081
:10177000E950EB6FEA51ED6F19E0E9C0F6F0E8C00F
:10178000F5F0E7C0F4F0E6C0F3F0FA6BF96B200E69
:10179000F86F820EF76FFEDE03C0E9F002C0E8F0DA
:1017A00001C0E7F000C0E6F0ED2FE7D7E9C0F6F0A2
:1017B000E8C0F5F0E7C0F4F0E6C0F3F072D703C07C
:1017C000E9F002C0E8F001C0E7F000C0E6F0E9AFE0
:1017D0000DD0EB07EB8BE61FE71FE81FE91FE62B99
:1017E000D8B4E72BD8B4E82BD8B4E92B3B0EF26F72
:1017F0009A0EF16FCA0EF06FEF6B0A0EED6FEA51A1
:10180000D8B4EB2BD882EA6AE60EE96EE9C0F6F0AE
:10181000E8C0F5F0E7C0F4F0E6C0F3F0F2C0FAF08B
:10182000F1C0F9F0F0C0F8F0EFC0F7F05ADF015066
:1018300000520FE1EA29ED5D0CE0EB510CE00F0BDB
:10184000ED5D01E037E2EBBF35D0EBBD04D0200EFB
:101850002DD0200EEB17EBAB0CD0EB9BEA51D8A4AC
:10186000EB070050EB6F2D0EF36F0DDFEB51006EA9
:10187000EB6BEA51ED5D0AE10050EB6F2E0EF36F5A
:1018800002DFEB51006E200EEB17000E300EEBABBB
:101890000DD0EB9BEA51D8A4EB070050EB6F2D0E57
:1018A000F36FF1DEEB51006EEB6B300E002600C0E3
:1018B000F3F0E9DED892F2C0F6F0F1C0F5F0F0C036
:1018C000F4F0EFC0F3F0FA6BF96BF86B0A0EF76FF8
:1018D00008DF03C0F2F002C0F1F001C0F0F000C078
:1018E000EFF0ED2F8FD763EF0DF0EB91A0BAEB8106
:1018F000A09AB4517F0808E2196AF2BE198EF29ECE
:1019000041EC08F019BEF28EB4517F0802E27F0E5E
:10191000B46FB451B42B036A340FE96E000E032088
:10192000EA6EEAC0EFFFEBA101D0A08A9BEF0CF0BA
:10193000E9C0EAF0DAD7BBEF0CF0800ED880B455DE
:1019400017E1196AF2BE198EF29E020E0101126FA2
:10195000000130EC06F019BEF28E015208E0196A5F
:10196000F2BE198EF29E41EC08F019BEF28EE5D758
:10197000E8C0E9F0DDD7C6EF0CF0EF520FE0EACF98
:10198000E7F0E9CFE6F0EFCFE8F0D7D7E7C0EAFF1E
:10199000E6C0E9FFE92AD8B4EA2AEFD76AEF0DF0EA
:1019A000EA6AE70EE96EEF500EE00F0E016E006A74
:1019B000002EFED7012EFBD78F0E006E002EFED715
:1019C0000000EF2EF2D76FEF0DF0F86AD09E078E71
:1019D000BF6BBE6BC150C00B0F09C16E070EB46E5A
:1019E000B86BB96BC16BC06BC150C00B0E09C16E37
:1019F000C050C00B0709C06EC08EC280000E016EC1
:101A0000C250C30B0110C26E040E936E8198819A6E
:101A1000196AF2BE198EF29EBDEC01F019BEF28E6B
:101A2000E8D4CCDCB1DC01525CE0C282C2B2FED7A9
:101A3000C3CFC0F0C4CFC1F0C1C0E7F0C0C0E6F072
:101A4000DFD403C0E9F002C0E8F001C0E7F000C055
:101A5000E6F0ED6BC00EEC6F7F0EEB6F880EEA6F59
:101A6000EBD403C0E9F002C0E8F001C0E7F000C029
:101A7000E6F003C0F6F002C0F5F001C0F4F000C0DB
:101A8000F3F0FA6BF96B7A0EF86F870EF76F82DD61
:101A900003C0C5F002C0C4F001C0C3F000C0C2F072
:101AA000BF6BC60EBE6F490EF36FEDDD890EE96E9A
:101AB000C5C0E9F0C4C0E8F0C3C0E7F0C2C0E6F0BA
:101AC000020EEA6F55D6460EF36FDDDDEA6AC60EEA
:101AD000E96E53D7040EE66FFA0EE76F61D7E62F73
:061AE000FBD79FD70300B5
:020000040030CA
:0E00000024CE3E1E0087A1000FC00FE00F406F
:00000001FF
;PIC18F4550
;CRC=C98C  CREATED="21-may.-22 16:24"
